:060000000A128A11122809
:10000800FE00030EF9000408FA000A08FB00831238
:1000180003137F08FC000A128A1179290A128A112F
:1000280015287030840079300A128A11C8210A1202
:100038008A118313203084004E300A128A11C82195
:1000480083010A128A1128280A128A115A210A12CF
:100058008A110A128A11EF200A128A110A128A11C9
:10006800D0210A128A110A128A11BE210A128A1193
:100078000A128A112A210A128A11143083120313D0
:1000880040064104031D56280A128A1197210A12B4
:100098008A110A128A11A7210A128A1183120313DC
:1000A800C001C101E8307406033003197506031D49
:1000B8006A287808031D6A28F801F80AD401D501CE
:1000C800D201D301D001D101CE01CF010A128A1188
:1000D80070200A128A113C28E8307406033003198C
:1000E8007506031D7F280130F2070318F30A003054
:1000F800F307F401F5013C3072067304031D8C28E4
:100108000130F0070318F10A0030F107F201F3019A
:100118003C3070067104031D9B28013083120313C1
:10012800C4070318C50A0030C507F001F1011830EB
:100138008312031344064504031DAA28C401C501FC
:100148000130C2070318C30A0030C307063042064D
:100158004304031D0800C201C301080000308A00DF
:100168000408840A82070034483455344D3449342D
:1001780044344934543459340034443455345234B2
:100188004134543449344F344E34003445344E34B9
:10019800413442344C34453400344D3441344E34C7
:1001A800553441344C34003443344F344E3446349F
:1001B8004934473400345334543441345434453486
:1001C800003448344F345534523400345A344F34A0
:1001D8004E344534003483120313B801B9011E307C
:1001E800BC000030BD000130BA000030BB006430F4
:1001F800BE000030BF00B001B1010130B4000030D2
:10020800B5000130B2000030B3006430B6000030F1
:10021800B700A801A9010130AC000030AD000130E1
:10022800AA000030AB006430AE000030AF00A0017F
:10023800A1010130A4000030A5000130A200003067
:10024800A3006430A6000030A7000800831203133F
:10025800561C3229831203130814352983120313F9
:100268000810541C3B298312031388143E29831257
:1002780003138810521C44298312031308154729B5
:10028800831203130811501C4D2983120313881578
:1002980050298312031388114E1C56298312031305
:1002A80008160800831203130812080083120313A8
:1002B8008801831603138801FF30860001308312FA
:1002C8000313D6000030D7000130D4000030D50029
:1002D8000130D2000030D3000130D0000030D1000E
:1002E8000130CE000030CF0008000B1D8A290830ED
:1002F80081000B110130F4070318F50A0030F507E7
:100308000130C0070318C10A0030C1078B188B10D1
:100318007C08FF007B088A007A088400790E830035
:10032800FE0E7E0E09009B29F701F70A08007708E0
:10033800003A03199829013A0319A629033A03191F
:10034800A629A62908007608003A0319B229013A15
:100358000319B229033A0319B229B2290800C13096
:1003680083120313D80058088316031381058B16CC
:100378008B170800903083120313D80058088B0499
:10038800831603130117080064008001840A040619
:10039800031900340406C9290A128A11B321080076
:02400E007A3FF7
:00000001FF
